:020000041000EA
:1000000000B5324B212058609868022188439860DF
:10001000D860186158612E4B002199600221596106
:100020000121F02299502B49196001219960352056
:1000300000F044F80222904214D00621196600F024
:1000400034F8196E01211966002018661A6600F04E
:100050002CF8196E196E196E052000F02FF8012189
:100060000842F9D1002199601B49196000215960AB
:100070001A491B48016001219960EB211966A021F2
:10008000196600F012F800219960164914480160C1
:100090000121996001BC002800D000471248134993
:1000A000086003C880F30888084703B5996A0420EC
:1000B0000142FBD001200142F8D103BD02B5186610
:1000C0001866FFF7F2FF186E186E02BD00000240BE
:1000D000000000180000070000035F00212200005C
:1000E000F4000018222000A00001001008ED00E03C
:1000F00000000000000000000000000074B24E7A12
:1001000000200420F7010010CB010010CD010010E9
:10011000C9010010C9010010C9010010C901001077
:10012000C9010010C9010010C9010010CF01001061
:10013000C9010010C9010010D1010010D301001045
:10014000C1010010C1010010C1010010C101001067
:10015000C1010010C1010010C1010010C101001057
:10016000C1010010C1010010C1010010C101001047
:10017000C1010010C1010010C1010010C101001037
:10018000C1010010C1010010C1010010C101001027
:10019000C1010010C1010010C1010010C101001017
:1001A000C1010010C1010010C1010010C101001007
:1001B000C1010010C1010010C1010010C1010010F7
:1001C000EFF30580103800BE00BE00BE00BE00BECA
:1001D00000BE00BEF2EB8871D8250010002600108A
:1001E0003802001090A31AE71E481F49086006C88D
:1001F00081F3088810471D480068002801D019487D
:10020000F3E70DA40ECC002902D000F012F8F9E7B4
:100210001749184A002000E001C19142FCD116495B
:100220008847164988471649884700BEFDE701C937
:1002300001C29A42FBD3704700260010C000002084
:1002400028050020682A0010000004200000042077
:10025000682A001000100420001004200000000094
:10026000704700000000000008ED00E0000000D032
:1002700028050020C80A0020251B001021030010BB
:100280001D1B0010F8B5C0460448054B10B583424D
:1002900003D0044B002B00D0984710BD2805002048
:1002A000280500200000000006480749091A8B10A5
:1002B000C90FC91810B5491003D0044B002B00D04A
:1002C000984710BD280500202805002000000000E8
:1002D00010B5074C2378002B09D1FFF7D5FF054B4C
:1002E000002B02D0044800E000BF0123237010BDA2
:1002F000A8070020000000006C240010054B10B57A
:10030000002B03D00449054800E000BFFFF7CCFFF5
:1003100010BDC04600000000AC0700206C24001097
:10032000F0B5DE4657464E464546E0B591B001F081
:10033000F9FC1B2000F004F91A2000F001F910204C
:1003400000F0FEF80C2000F0FBF8D02480232406F7
:100350005B01002201210C20A36200F0DDF8802364
:100360001B0563628023DB04636280235B0263629C
:1003700001230293033301930E330093554807ABD7
:1003800006AA05A901F0DCFE002800D19FE00023A9
:1003900080220B93F82352025B0208920993C02338
:1003A000079F1B03102208A90CA8059D069E0A930F
:1003B00001F08CFB7B1CFA011B0313430CA91022D8
:1003C00008A80D9301F082FB434B12200B93434B83
:1003D000EC18240D0634E4B2210000F083F821006B
:1003E000132000F07FF82100142000F07BF821009A
:1003F0000124152000F076F80094B4400423122262
:100400003100280001F0F4FD280008AB3A0031006B
:1004100001F048FE2B681C43314B2C60D0259A46D6
:100420002D0653461F1F0423984680235B029946DE
:1004300043460422D21A07231C009440424613412B
:1004400006981C430300012210339A4005994B681B
:100450001A42FCD10430800044500020002100F0FA
:1004600027FE4B46AB6180233C0080261B059B4644
:100470002434F60412E05B466B610020002100F09A
:1004800017FE00200021AE6100F012FE043C0020A7
:1004900000216E6100F00CFEA74205D02368002BFE
:1004A000E9D15B46AB61E8E70020002100F000FEE7
:1004B0004B4600206B61002100F0FAFD01235B42F6
:1004C0009C46E04443462037002BB1D1A9E701F018
:1004D00005F95CE76C240010120040000000E0AF5A
:1004E00098010020094A83009A1810B51468402228
:1004F000544080322240064CC000A44663441A6037
:10050000044B9C466044416010BDC04604C001409D
:1005100004D0014000400140074B8000C3181B6815
:10052000C90092000A435A400C231340034A9446E0
:10053000604403607047C04604C0014004D00140DD
:100540000123D0228340120693629361094A8300FB
:100550009A1811684022514080320A400649C00072
:100560008C4663441A60054B9C46052360444360F7
:100570007047C04604C0014004D001400040014023
:100580000FB400B5084883B001F01EFC049B002B9B
:1005900007D005A91800019101F0A6FA034801F05F
:1005A00013FC012001F0B8FA782400108824001010
:1005B000EFF3108072B6034A1368002BFCD0BFF330
:1005C0005F8F70472C0100D0BFF35F8F0022024B7A
:1005D0001A6080F3108870472C0100D070B5EFF3DB
:1005E000108C72B60D4D2B68002BFCD0BFF35F8FC3
:1005F0000724CB08C618C05C01230C40A3401C0094
:100600000440034207D118433070BFF35F8F2C6062
:100610008CF3108870BD1000FFF7B2FF2C0100D0E2
:10062000F8B54746CE46884680B5EFF3108C72B6D3
:10063000214D2C68002CFCD0BFF35F8F9A422CD840
:10064000D4080727055D061901241740BC402C4239
:100650001FD007210127894609E0D408055D061946
:100660004C4639001440A1400C00294211D00132FF
:100670009342F2D201204042BFF35F8F00220E4B23
:100680001A608CF3108800280FDBC0BCB946B04656
:10069000F8BD254310003570EEE7BFF35F8F0023F0
:1006A0002B608CF31088012040424346002BECD095
:1006B0000898FFF765FFC0462C0100D030B5EFF376
:1006C000108C72B60A4C2368002BFCD0BFF35F8FEE
:1006D000072301220B409A40CD08435D93434355C5
:1006E000BFF35F8F002323608CF3108830BDC046BA
:1006F0002C0100D0044A1078431CDBB2172B00D920
:10070000102313707047C046780400200021044B6A
:10071000044ABFF35F8F02C39342FAD17047C046C9
:10072000000100D0800100D0054B064A1360064A44
:10073000136053609360D36013615361936170479A
:100740008080808000E400E004E400E01F23184083
:100750001E3B8340002905D0C021044A4900535064
:1007600013607047802201498B50FAE700E100E0F6
:1007700070B50D00EFF3108672B60F4A1368002BA8
:10078000FCD0BFF35F8F0D4B10309B6884001B596A
:100790000B4A934203D09D4201D000F09FFF074BCC
:1007A0009B681D51BFF35F8FBFF35F8F0022024B29
:1007B0001A6086F3108870BD240100D000ED00E0BF
:1007C000C1010010F0B5DE4657464E464546E0B53D
:1007D0000C0083B0EFF3108872B6634A1368002BE5
:1007E000FCD0BFF35F8F614B61499A6803001033FF
:1007F0009F00D55900938D4243D0A54254D05D4E01
:10080000AA1B2F2A3DD85C4B9C461B689A460123A5
:100810001A0099468240534613401F2201934B46CB
:10082000024093409A468022634650469850BFF358
:100830005F8FEFF305839B46002B37D0009B5B4512
:1008400001D000F04BFF2A004B469A439068844247
:1008500008D177E04B005B189B00F318986884423E
:1008600036D01A00062151560029F3DA844255D0B9
:10087000019B002B27D0C02251463F4B520099507C
:1008800019603A4B9B68DD51BFF35F8FBFF35F8FF9
:100890000022354B1A6088F3108803B0F0BCBB46C9
:1008A000B246A946A046F0BD0D00EAE72A004B4635
:1008B0009A4390688442D5D1062010561300002830
:1008C0000ADA0D0032E0802351462B4AD150D8E796
:1008D00006201856002822DB4200111889007418DF
:1008E0008946A1689960E179D971062161569971AB
:1008F000002925DBA488F11A640524154C44091944
:10090000E0240905490D24022143998013181B4A4C
:100910009B001178F31899711070A9E713005946DC
:10092000002914D1FF3191711549918013490A783A
:100930009A71144A9B1B5B415A43120D0A7097E748
:100940001149E2E70620105613000028C4DA0F4AC6
:100950000F49D21A083A5002400D014399800D49BF
:1009600052080A43DA8083E7240100D000ED00E05A
:10097000C10100107C04002000E100E0C40A002056
:1009800001BDFFFFAAAA000001BD0000B6040020BF
:1009900000F0FFFF00F8FFFF70B501240443EFF300
:1009A0000581EFF3108C72B6214A1368002BFCD03E
:1009B000BFF35F8F1F4B05001F4AED1A6D416A435D
:1009C000120D1E4D8900AE6852B27658A6421CD058
:1009D0000621595691421CD012215956914222D0DB
:1009E0001E215956914220D02A2159560324914262
:1009F00010D0134B19781A708171BFF35F8F0022EA
:100A00000B4B1A608CF3108870BDAB680D4C5C50BA
:100A1000EFE700246100091989005B18FF21997133
:100A200009499980E5E70124F4E70224F2E7C0468A
:100A3000240100D07C040020AAAA000000ED00E000
:100A4000C40A0020C101001001BDFFFF024B9C46FB
:100A500061448900016070474000003470B5114C5A
:100A6000114DAC420FD2FF262368002B0CD0FFF7AC
:100A700041FE01002000FFF7E9FFA680BFF35F8F72
:100A80000834AC42F0D370BDFFF734FE0100200003
:100A9000FFF7DCFF2671BFF35F8F0834AC42E3D36E
:100AA000F1E7C04618050020280500200A4B196808
:100AB000EFF3108072B60A68002AFCD0BFF35F8F94
:100AC0001B68BFF35F8F00221A6080F3108840BF5D
:100AD000002000217047C046B80A0020F0B5DE466D
:100AE00057464E464546E0B583B0EFF305820323F3
:100AF0001340B54A990052580091904601229A40FD
:100B00009346B24B1A60B24B01935B46B1484363C4
:100B1000434608229B5E9946002B3ADA43469B885F
:100B20001BB2002B00DB9DE043469B79002B00D0DD
:100B3000E1E0434608241C5F002C20DB43465A6951
:100B400063001B19DB00D3189D68DC686B1C00D1A7
:100B500003E1A048009984466144826A0B69AE1A99
:100B60009B1A9E4213D35A46036A1A420FD09948E1
:100B700000F038FB8C4202DCC7D18542C5D940BFAA
:100B800003B0F0BCBB46B246A946A046F0BD0D611D
:100B9000EDE7424652695B0092464B44DB009A44C3
:100BA00053469E68DF6800F01DFB8F42B6DC00D123
:100BB000F8E0002F00DAD9E05246534654691B6929
:100BC000019A934200D1CCE0414652460820085E8B
:100BD0005288000421001043984704000D002300B0
:100BE0002B4300D1C2E0002D00DBDFE030003900F4
:100BF000001BA94153469860D96000229A5E002AE2
:100C000000DA8BE743465D6953009C18E4002C1919
:100C1000A768E4688C4200DD80E702D1874200D9F2
:100C20007CE74646328108360DE08C4200D1C6E0B2
:100C30001E000023F25E002A0ADB53009C18E40029
:100C40002C19A768E4689B18DB00EB188C42ECDDDC
:100C500053461A804B46338043469B881BB2002B79
:100C600000DA61E743461A69EFF3108172B6136840
:100C7000002BFCD0BFF35F8F43469E880123424682
:100C80005B42938036B21369BFF35F8F00221A6014
:100C900081F31088002E00DA46E743465D69083389
:100CA00042469C467700BF19FF00EF19BB686046BB
:100CB00098460823D15E9246FC68002907DA0EE0C8
:100CC000A24246D018000023C15E002906DB4B007B
:100CD0005B18DB00EB18DA68A242F1DD52460680B1
:100CE0000023FE5E3980002EDCDA904643469B7975
:100CF000002B00D11DE70023424693714346464630
:100D00000821595E08364B1C00D138E74746894612
:100D1000556902E006004B1C18D04B005B18DB0045
:100D2000E8180A008C46E95E43881BB2002BF1DA12
:100D300001235B42DC178360C4604A4503D03180E5
:100D40003B8903803A81E1464B1CE6D1B8464C46CC
:100D5000F2E69A684245B5D9C0E7631C00D0F8E6D0
:100D600005E7200023699847002825D153464246CD
:100D70001B8813811269EFF3108372B61168002982
:100D8000FCD0BFF35F8F4246514652880A804246EC
:100D9000494651801269BFF35F8F0021116083F3D0
:100DA0001088BBE6864200D803E7B7E6094800F0A2
:100DB00019FA001969411DE7656824680FE7874241
:100DC00000D835E744E7C046A40900203C70054040
:100DD000DD0A00100040054070B52E4C2569002D3D
:100DE00004D00A212C48FFF731FE70BD2B4E0321A1
:100DF000300000F0EDF9E660FFF77CFC284B0322A1
:100E00009C46D02322701B061B6801216370254B72
:100E10006044A3600F238000206102206380636927
:100E20004942A18019800231198647311D835852E9
:100E300018315A5275325C3999521832013199522F
:100E4000183201319952183201319952083518324D
:100E50009D5202311832995218320131995218328A
:100E60000131995218320131995218320131995297
:100E70001832013199520C4B0C49DC60013035625B
:100E8000FFF776FC01210320FFF760FC084B1D6093
:100E9000A7E7C046C4040020B80A0020004005406F
:100EA00040000034FFFF1000A4090020DD0A0010FC
:100EB0003860054070B501000469EFF3108C72B61C
:100EC00020680028FCD0BFF35F8F02200D5E4C69C4
:100ED00068004019C0002418002D37DB20884880A6
:100EE0000869BFF35F8F002606608CF31088E3600B
:100EF00063880498013320615B0405985B0CA26051
:100F000060611A1C002B1FD093B228046280184322
:100F10000A69EFF3108C72B61368002BFCD0BFF394
:100F20005F8F8B8823808D800B69BFF35F8F0022DA
:100F30001A608CF310880B7801329A40CB6808490C
:100F40008C4663441A6070BD0122DDE70B69BFF374
:100F50005F8F00221A608CF3108801204042F2E774
:100F60003C20000010B543890A1493421ADD530057
:100F70009B184269DB00D3180469EFF3108C72B63A
:100F80002268002AFCD0BFF35F8F5A88090494B20C
:100F9000090C8A4208D00369BFF35F8F00221A60F0
:100FA0008CF31088002010BD8022120214435C8054
:100FB000012302698371BFF35F8F002111608CF3FD
:100FC0001088044902788C469340C268012062442C
:100FD0001360E8E73C200000F0B504000D00062691
:100FE0007642F717C64636196F4100B582B08F4278
:100FF00014D811D000F0FEF832003B00121A8B41D9
:10100000002B17DC002B47D02000290000F030F91E
:1010100002B080BCB846F0BD8642EBD90022002366
:1010200016001F0000F0E6F832003B00121A8B4158
:10103000002BE7DD00F0DEF832003B00121A8B4196
:10104000002B0ADB00230193154B32000093154857
:101050003B00FFF72FFF0028D6DB00239C46B0465D
:10106000114A124E736A9F4204D8B16A8845CBD99F
:101070009F42C9D11168EFF3108072B60B68002B44
:10108000FCD0BFF35F8F1368BFF35F8F61461960B9
:1010900080F3108820BFE5E7002AB5D0CAE7C04634
:1010A000AD0A0010C4040020B80A0020004005402A
:1010B00070B504000D0000F09DF88023001969410F
:1010C0001B06994202D3012002494042FFF784FFE8
:1010D00070BDC046FFFFFF7FF0B5D6464F4646467F
:1010E000C0B504000D0082B0EFF305878946002FDC
:1010F0000ED0344900204B6AAB4203D38A6A0130D8
:10110000A24226D302B0E0BCBA46B146A846F0BD22
:101110002D4B9846DB689A46434650461E7800F0B1
:1011200061F80B00514602000436B60071582000E9
:101130008E1A2900801A99418F4211DC0ED020BFEF
:10114000204A0020536A4B45DCD3926A0130A24208
:10115000D8D25B1B5A1E9341D8B2D3E78642EED950
:1011600000F048F822002B00121A8B41002B1ADBEA
:1011700000230193154B2200009340462B00FFF7FC
:1011800099FE011E0FDD0F4B5A6A4A4517D39B6A21
:10119000A34212D34046FFF7E5FE0A4A0020536AF5
:1011A0004B45AFD3D1E7074A0020536A4B45A9D33B
:1011B000926A0120A242A5D2CBE74A45EAD120BFDC
:1011C000E8E7C04600400540C4040020AD0A001016
:1011D00010B5024A0248FFF701FA10BD8C24001036
:1011E000680900200300416A0A00986A596A8A4225
:1011F000FAD17047034B596A0A00986A596A9142BA
:10120000FAD170470040054070B504000D00174A40
:10121000536A1900966A536A8B42FAD1300019005A
:1012200024184D41AB4216D813D0104A2B00526AF5
:10123000954203D90D494A6A9A42FCD39A4207D192
:101240000A4A02E0516A994202D1916AA142F9D355
:1012500070BDA642E9D9054B5B6A1C005A1CEFD051
:10126000012301246442E5175B42E3E700400540A7
:10127000064A536A9942FCD807D1044B02E05A6AE5
:10128000914202D19A6A8242F9D3704700400540E8
:10129000F8B5040006200D0000F078F9002844D0CD
:1012A000374B3849E3185A1E934180221204944662
:1012B0005B429B0D344A9B0563441360334A1360C1
:1012C00018000A689043FBD12D4B314AE31859426C
:1012D0004B4180215B0049000620995200F056F9ED
:1012E0002900C00000F024FB0130C3091ED14027B3
:1012F00001226262A362266BF30722D4E36A254BC4
:101300000620E51800232B60266300F03FF9390022
:10131000800000F00DFB7023E26A5A400E33134048
:101320002B601D4B23630323A364F8BD1B4A934228
:101330001ED900231A4A1B4F6262A362266BF30771
:10134000DCD5194B144AE3181A60656AA36A0620B3
:10135000AD01ED1800F01AF9144900F0E9FAAD02F8
:101360000100280000F0E4FA0021FFF74DFFC5E777
:101370004006800E9F011A003F180300B9E7C046DF
:101380000080FCBF08C0004000E0004000F00040CA
:10139000BC0A00202C10000001030000FEFF00002A
:1013A000FFFF0000C0FF3F00303000004E0E000085
:1013B000F8B5DE464E4657464546E0B58B46050035
:1013C0000A991800160000F0B3FA0A9B6C001F027D
:1013D000324B64199C46A4006444636881469F4272
:1013E00000D967602B1FDBB29846012B30D9C02390
:1013F00080229B01E31812011A60294BAD00595954
:101400009A4600291BD17301E026226853401E40F2
:10141000802342465B01E3181E60012A30D98023F5
:1014200080229B01E31812011A6053464A46676006
:101430005A51F0BCBB46B246A946A046F8BD586911
:1014400000F076FA013043001B18033BFDD2DAE7C7
:101450005B46012BCBD1C02303229B01E3181A600A
:10146000023AA3681A42FCD07301E0262268AD005C
:1014700053401E4080230A4A5B019246E3181E60D7
:101480005A462168514003220A401A6001225B46F5
:101490009A40A3681A42FCD0C1E7C04600800040D1
:1014A00070090020F0B546464F46D646C0B51F002D
:1014B000344B44009C462418A40064446368884666
:1014C0001600FF2B02D880235B006360031FDBB292
:1014D0009A46012B30D9C02380229B01E3181201C8
:1014E0001A60294B85005959994600291BD173016F
:1014F000E026226853401E40802352465B01E318D9
:101500001E60012A30D9802380229B01E31812013A
:101510001A6080235B0063604B465F51E0BCBA46B3
:10152000B146A846F0BD586900F002FA0130430008
:101530001B18033BFDD2DAE74346012BCBD1C02376
:1015400003229B01E3181A60023AA3681A42FCD0F6
:101550007301E0262268850053401E4080230A4A1A
:101560005B019146E3181E60424621685140032208
:101570000A401A60012342469340A2681342FCD0FD
:10158000C1E7C0460080004070090020014B800088
:10159000C058704770090020F8B5040021481E00AB
:1015A00017000D0000F0C4F90100380000F0C0F988
:1015B000069B36041B031E432368002B20DB1A4BBB
:1015C0001A49E3185A1E93418022920194465B42C5
:1015D0001B0B174A1B0363441360164A13601F005A
:1015E0000A689743FBD1144B2560E2182123A060C1
:1015F00013602368002BFCDA0823E6601360F8BD53
:101600003F2322681340AB42D9D1A3681B051B0DB1
:101610008342D4D1EE22E368D2021340B342CED14A
:10162000EDE7C046001BB7000040FDBF08C000400A
:1016300000E0004000F00040043000008023024A37
:101640009B000B43D362704700800540142310B504
:101650000100188804331B88984710BD162310B565
:101660000100188802331B88984710BDF8B547461B
:10167000CE4680B50F1E19D01423994604330400BA
:101680000025012698464B461888434621681B884A
:10169000984701C4431E9841013540420640AF427D
:1016A000F1D13000C0BCB946B046F8BD0126F8E71C
:1016B000AA23064A1B0113608D235B00D3600449F3
:1016C000044B19605368002BFCDA7047004002405D
:1016D00000B0FA00006002407047C04610B50148F3
:1016E000FEF74EFFB024001070B5074D074EB5420F
:1016F00009D20024013E761BB60808CD9847230086
:101700000134B342F9D170BD2824001064240010C4
:10171000054B064A06491A60064A074B1A60100034
:101720000B689843FBD1704700E00040BFCDFBFE43
:1017300008C00040FE7F3C0000F00040044BDB6C22
:10174000002B03D18022034BD2021A607047C0469F
:10175000000011504C201150044A054B1A60054AF4
:101760001368DB018033FBD17047C046FFFFFF01E8
:1017700000F0004008C000404022034B9A675A67BF
:101780001A67DA667047C04600F0014010B5FEF7F0
:10179000BDFF10BDF8B52749274C284D641AA61087
:1017A0003200302E00D930222800920000F08EF94D
:1017B000BC2C3BD830202F232C196407204A801BD7
:1017C000E40F9B1B052B16D93700002C02D0B30069
:1017D000771CEA50001B33199B004108EB18C90025
:1017E000C9181A605A6008339942FAD1012303429A
:1017F0001CD09843C619B300EA50731C2F2E15D085
:101800009B00EA50B31C2E2E10D09B00EA50F31C14
:101810002D2E0BD09B00EA50331D2C2E06D09B00A2
:10182000EA50731D2B2E01D09B00EA50054B9D60A2
:10183000F8BDC04600010010C001001000000020EB
:10184000C101001000ED00E0002310B5294C82B06A
:10185000A367FFF72DFF0122274B1A60636C012B52
:10186000FCD10322254B1A60224A936B012BFCD139
:10187000013300930121224A22480433FFF78CFEF2
:10188000052301210093204A2048FFF785FE00220E
:10189000022104201E4BFFF705FE00220121052036
:1018A0001C4BFFF7FFFD0022002107201A4BFFF71A
:1018B000F9FD002200210820174BFFF7F3FD8023DC
:1018C000DB000093002200210920134BFFF770FD7D
:1018D0000022104B00210620FFF7E4FD0420FFF753
:1018E00055FE0E4900F024F801000020FFF7A6FE87
:1018F00002B010BD008000403CB0004030B000405D
:10190000002F685900800240008C864700C00240CA
:10191000001BB70040597307006CDC0240420F0007
:1019200001480421014B1847E00400206D16001007
:10193000114A936F9B0813D210665166002905D097
:10194000FFE7FFE7FFE7516F106F704704B500280E
:1019500001D00020C04300F057FD002104BDC04667
:10196000F0B5146E556E576F166FFFF7E5FF1466EE
:10197000556657671667F0BD000000D010B50148E6
:10198000FEF7FEFDBC240010132370B51D78012D59
:1019900019D014DD1D48FFF761FE06001C48FFF753
:1019A0005DFE1C4C80223100200000F08FF8022DDB
:1019B00006D01948FFF74AFE184B186070BD154C49
:1019C000174BA364F5E7174B124C23606360A360C9
:1019D000E36023616361A361E36123626362A362E5
:1019E000E36223636363A363E36323646364A364C5
:1019F000E36423656365A365E36523666366A366A5
:101A0000E36623676367A367E367D9E7534400008E
:101A100053460000A80600204C330000B409002003
:101A2000291A00107D19001007B5604601880A0ABE
:101A30000230DF2AFAD1C9B2820804D30288408872
:101A40000004104300E00068014A5050039007BDB5
:101A5000A806002010B50148FEF792FDD42400101E
:101A6000132310B510481C78FFF7F8FD0100012C76
:101A70000AD003DD80220D4800F028F80C48FFF75B
:101A8000E5FD0C4B186010BD084C5422200000F0FE
:101A90001DF82200084980322368002B00D1216004
:101AA00004349442F8D1E9E753460000B809002015
:101AB0004C330000B4090020551A001001480421DD
:101AC000014B1847F00400206D160010014B5B68B5
:101AD00018470000F004002010B5002800D110BD08
:101AE00000F026F9FBE7C04610B5094A0300146868
:101AF00084B0002C08D0012200910648524203A96C
:101B0000A047012004B010BD00F05EF90020F9E705
:101B1000A0090020D91A001000BEFDE710B5FFF79C
:101B2000FBFFC04670B5FFF7DFFD074D074EB5421E
:101B300009D20024013E761BB60808CD9847230041
:101B40000134B342F9D170BD642400106C2400103C
:101B5000030010B5080011001B68984710BDC0466F
:101B6000F0B5C64600B5437D07000D001600002BFA
:101B700038D0002A2EDD00216A1E90466A5C037D63
:101B80004C1C00200A2A0CD0A64216D043461B5DEE
:101B900021000D3B5A4253416A5CDBB24C1C0A2ABD
:101BA000F2D1002BF0D1884217DB022110483B68AC
:101BB0009847A64207D02000E8E7864203DD311AA5
:101BC0003B6828189847AD19013D2B780D3B5A42C8
:101BD00053413B7580BCB846F0BD091A3B682818D4
:101BE0009847E2E70368110028009847F2E7C046EB
:101BF000B8250010F0B5DE4657464E464546E0B5DE
:101C000085B017001C0006000D00FFF7F3FA002353
:101C1000314A12184B41802109068B4202D301221E
:101C20002E4B52422E4908008A4600F0F5FB0190E7
:101C30006B1C03D1300000F051FB0500002C26D0B6
:101C4000284B9846284B1C68002C15D0002F21D11A
:101C5000264F02E02469002C0ED02368002BF9D017
:101C60003B68002B01D09C42F4D120002A003100B7
:101C7000C0472469002CF0D1019B002B28D12800FB
:101C800005B0F0BCBB46B246A946A046F0BD184B15
:101C90009846D7E7154B994602ABDF1D0A239B46B2
:101CA00002E02469002CE7D02368002BF9D04B46D2
:101CB0001B68002B01D0A342F3D12A003100200081
:101CC000C0475B460122390020003B70C047E8E76F
:101CD000504600F091FBD2E740420F00FFFFFF7F2C
:101CE00020050020611B0010980900209C0900209D
:101CF000511B00100A4A1368002B05D10CE01A0092
:101D00001B691032002B07D09842F8D1002902D16C
:101D100003691360016170470029FCD01060FAE785
:101D20009809002010B500F03BF9012010BDC04615
:101D3000F0B5CE46474680B583B06B460600DD1D44
:101D40002870FFF757FA00231A4A12184B418021D6
:101D500009068B4202D30122174B52421749080051
:101D6000884600F059FB164B81461C68002C14D0A5
:101D7000144F02E02469002C0FD02368002BF9D007
:101D80003B68002B01D09C42F4D1200001222900A5
:101D9000FFF7E6FE2469002CEFD14B46002B05D15E
:101DA000300003B0C0BCB946B046F0BD404600F0BC
:101DB00023FBF5E740420F00FFFFFF7F20050020D7
:101DC000980900209C09002070B5040000F086FAF4
:101DD00001230100050001222000FFF70BFF084B43
:101DE0001C68002C06D06368002B05D09847246936
:101DF000002CF8D1280070BD2469002CF3D1F9E73C
:101E000098090020F0B5002915DD0E4B0D271A6842
:101E10000D4B0E4CD3185D426B41451820215B00E1
:101E20001E5F0478A64207D093691942FCD10130A5
:101E30001460A842F5D1F0BD93691942FCD1176036
:101E4000F2E7C046C00A00200080FCBFBC0A0020A8
:101E5000204B70B504000D1E1E682ADD00201021E5
:101E60001D4B013C1A689369194214D101309369E2
:101E70001942FCD1136823548542F4D1002E08D0B6
:101E800050239363516B183B0B4014498C466244BA
:101E9000136028000CE0002E08D050239363516B90
:101EA000183B0B400D498C466244136000280DD04E
:101EB00070BD002E0AD05022074B1B689A63596BE5
:101EC000183A0A4005498C4663441A600320404290
:101ED000EEE7C04660090020C00A00203410000070
:101EE000064B10B51B68002B06D00021044A12686F
:101EF0009163044A1068984710BDC04660090020ED
:101F0000C00A0020640900200822034B19688B696D
:101F10001A42FCD17047C046C00A0020F8B51A4FDB
:101F20001A4B3A680500D31858424341184E1433EF
:101F30001C003368002D02D0002B0FD0F8BD002B01
:101F4000FCD0002120009563FEF700FC2000114921
:101F5000FEF738FC104B35601D60EFE70E4B20009C
:101F600019600C493560FEF703FC01212000FEF7E3
:101F7000EDFB50223B689A63596B183A0A400749B7
:101F80008C4663441A60D9E7C00A00200080FCBF79
:101F900060090020E11E00106409002034100000D8
:101FA0000D4B10B51B780D4B0D4C1B780D4B0221C2
:101FB0001B780D4B00202360FEF794FA02210120CC
:101FC000FEF790FAE12120684902FFF761F901214B
:101FD0000648FFF78FFE10BDFC250010F825001005
:101FE000C00A0020F4250010004003400005002036
:101FF000F0B54E464546DE465746E0B583B08946C5
:102000000CA984460D781F2A45D8494649008846C0
:102010004944C900461837003400DC373868CC34EE
:1020200083462068310001901C4880248246A40227
:1020300051440C6069424D411E216D428D43184947
:102040008A465544052B0CD9A0201F214005D836BF
:10205000540104430532053B3C600A403560052BC2
:10206000F6D852019B06134342464A44D2006244CA
:102070001000DC3213600300D8331D605B46136030
:10208000019BCC300360002003B0F0BCBB46B246DD
:10209000A946A046F0BD05204042F5E7CC3000003F
:1020A0009FE00000F0B501258D400468AC4304605A
:1020B000002B2ED04D006C18E400041926001F6878
:1020C000C83637609F68043677605F68DB68DC3449
:1020D000376023606B18184DDB00AC468025C418B0
:1020E00064442D0625602560144C0D1D8C408460D1
:1020F00001242600AE40802508318C401F21AD010F
:102100004519C0180A40D8302E602C6002600020AB
:10211000F0BD4D006C18E400041926008027C83675
:102120007F023760C0273F03B760F82704367F027D
:10213000DC3437602360CDE7D010000001010101DD
:10214000F0B54E464546DE465746E0B58BB00393A4
:10215000594B06009846594B0C009346022502271E
:102160009946574B4A469C46564B67449C463F050A
:1021700027606744BF0C009200213A004046FB1CD8
:10218000FEF74EFAB84203DBC01B47B200060ED57D
:102190000127012D01D00125E3E700230020236062
:1021A0000BB0F0BCBB46B246A946A046F0BDFEF758
:1021B000FFF92368434A9A46052305905244307933
:1021C0004149120D92000490F356069107928A58E5
:1021D0000121814094460139002B36DB2022121A5E
:1021E00093424DDC0A0060469A40104248D1B079D3
:1021F0003268002844D199406046089101423FD19D
:10220000049880260024B60100280FD0B846170095
:10221000524661007D5AB54200D2ED18E1181231E4
:10222000890001348D50A042F3D847466246089990
:1022300007980A4306990A505A461760039A059868
:102240001360FEF7C1F90120AAE72022131A0993AF
:1022500016D40800624698400890104226D01A0012
:1022600053460893049B6046A2469C460C0004E03B
:10227000210091401300084210D0013AF8D2544690
:102280000598FEF7A1F90F4B21689C466144090DA2
:1022900089004046C919FEF711FA79E762460492AF
:1022A000089A2100844654469246A0E7B279002A53
:1022B000E6D104983268A4E76C090020402500109C
:1022C000010500000000E0AF5809002010B5010032
:1022D00000230022002000F043F810BD10B5830752
:1022E0000AD00300032102E001330B4205D01A7823
:1022F000002AF9D1181A10BD030019680C4A0D4CB8
:102300008A188A4322420FD15968094A04338A182D
:102310008A43224208D15968054A04338A188A43FD
:102320002242F1D000E001331A78002AFBD1E1E724
:10233000FFFEFEFE8080808070B5074C074D641B59
:10234000A41005D0013CA300EB589847002CF9D10C
:1023500000F04EF870BDC0466C2400106C240010D4
:10236000F0B5C6461A4C00B52568002D2AD06C6819
:102370001F2C2ADC002808D10020631C0234A40092
:102380006B60615180BCB846F0BD8827A600AE19CD
:10239000F2510137FF37BC460122AC446746A240E8
:1023A0003F68904617436246176084277F00F351C9
:1023B0000228E1D1280042468D30FF3003681343E4
:1023C0000360D9E7034D2560D1E701204042D9E7FA
:1023D00054090020C4070020034B10B5002B02D085
:1023E0000248FFF773FF10BD000000003923001002
:1023F000F8B5C0460000000001B40248844601BCA4
:10240000604700BF5D01002001B40248844601BC62
:10241000604700BF8501002001B40248844601BC2A
:10242000604700BFC1000020111700103D170010C9
:1024300021190010BD1A001089190010611A00102E
:102440004918001059170010791700108D17001047
:102450005D0A001095170010D90D0010D916001054
:0C24600029070010D9230010FD02001015
:10246C007424001002FF0000A08004600A2A2A2AAB
:10247C002050414E4943202A2A2A0A000A00000013
:10248C00486172647761726520616C61726D2025A0
:10249C006420616C726561647920636C61696D653F
:1024AC00640000004861726420617373657274008B
:1024BC006D697373696E6720646F75626C652066F5
:1024CC00756E6374696F6E000000000052656C6578
:1024DC0061736500626F6F74325F773235713038BB
:1024EC0030000000322E322E300000007069636F15
:1024FC005F77000064756D6D7900000046656220A1
:10250C0020392032303236005541525420737464D5
:10251C00696E000055415254207374646F757400D9
:10252C005541525420737464696E202F2073746467
:10253C006F7574004E6F2050494F20737461746531
:10254C00206D616368696E657320617265206176C8
:10255C0061696C61626C650006005250D3F0754283
:10256C00D824001006005250E182887FE02400102D
:10257C0006005250ABB36053F024001006005250CA
:10258C00BBFF3CB6F824001006005250861C030218
:10259C0000250010060052505422A29D0825001060
:1025AC0005005250DE65F468682A00100D0A000020
:1025BC000600525053B4F4A12C25001008005250C0
:0C25CC00120000000800525092100000A5
:1025D80064250010702500107C2500108825001047
:1025E80094250010A0250010AC250010D02500105F
:0825F800C8250010BC250010ED
:10260000F0B5C646150000B504001E000268EFF3E1
:10261000108172B61368002BFCD0BFF35F8F0423C8
:10262000E356002B2DDB2268BFF35F8F0020106084
:1026300081F31088D0221206127852B290469A4244
:1026400003D1002080BCB846F0BD00270BE0236812
:10265000BFF35F8F1F6081F310882800310000F006
:1026600033F80028EDD12268EFF3108172B61368B9
:10267000002BFCD0BFF35F8F23797F2BE7D9434634
:1026800002E0D0231B061B6823712368BFF35F8F12
:1026900000221A6081F310880120D3E70268EFF36B
:1026A000108172B61368002BFCD0BFF35F8FFF233D
:1026B00003710368BFF35F8F00221A6081F31088F3
:1026C00040BF70477047C04601B40248844601BC11
:1026D000604700BFD9100010010000000100000099
:1026E00001000000010000000100000001000000E6
:1026F00000000000000000000000000001000000D9
:1027000001000000000000000000000000000000C8
:1027100000000000000000000100000001000000B7
:1027200000000000010000000100000000000000A7
:102730000100000000000000010000000100000096
:102740000100000001000000000000000000000087
:102750000100000000000000000000000100000077
:102760000100000000000000000000000100000067
:102770000100000000000000010000000000000057
:102780000100000001000000000000000100000046
:102790000100000000000000010000000000000037
:1027A0000100000001000000010000000100000025
:1027B0000100000000000000010000000100000016
:1027C0000100000000000000000000000000000008
:1027D00000000000000000000100000001000000F7
:1027E00001000000010000000100000001000000E5
:1027F00001000000000000000100000001000000D6
:1028000001000000000000000000000001000000C6
:1028100001000000000000000100000001000000B5
:1028200001000000000000000100000001000000A5
:102830000100000000000000000000000000000097
:102840000100000001000000010000000100000084
:102850000100000000000000010000000000000076
:102860000000000001000000010000000100000065
:102870000000000000000000000000000100000057
:102880000100000001000000010000000000000045
:102890000100000000000000010000000000000036
:1028A0000000000001000000010000000100000025
:1028B0000100000000000000010000000000000016
:1028C0000000000000000000010000000100000006
:1028D00001000000000000000000000001000000F6
:1028E00001000000000000000100000001000000E5
:1028F00001000000000000000000000001000000D6
:1029000001000000010000000000000000000000C5
:1029100000000000000000000000000000000000B7
:1029200000000000010000000100000001000000A4
:102930000000000000000000000000000000000097
:102940000100000000000000010000000000000085
:102950000100000000000000010000000100000074
:102960000000000000000000010000000100000065
:102970000100000000000000000000000000000056
:102980000000000001000000010000000100000044
:102990000100000000000000000000000100000035
:1029A0000100000001000000010000000100000023
:1029B0000000000000000000100000000000000007
:1029C0000000010000000000000000000000020004
:1029D00000000000000000000000030000000000F4
:1029E000000000000000FF000000000001B5486882
:1029F00001318E460047704609380149884701BDBC
:102A00009909001000000000000000000000000014
:102A10000000000000000000280500200000000069
:102A2000503300004C330000543300005233000098
:102A30004D5300004D430000533400004334000068
:102A4000051E0010091F0010511E00101D1F001050
:102A50000000000000010000000000000000000075
:082A600000000000000000006E
:04000005100001E9FD
:00000001FF
